:1000000043C1000061C100005FC100005DC100008C
:100010005BC1000059C1000057C1000055C100007C
:1000200053C1000051C100004FC100004DC100008C
:100030004BC1000049C1000047C1000045C100009C
:1000400043C1000041C100003FC100003DC10000AC
:100050003BC1000039C1000037C1000035C10000BC
:1000600033C1000031C100002FC100002DC10000CC
:100070002BC1000029C1000027C1000025C10000DC
:1000800023C1000021C100001FC100001DC10000EC
:100090001BC1000019C1000017C1000047C50000C6
:1000A00013C1000011C100000FC100000DC100000C
:1000B0000BC1000009C1000007C1000005C100001C
:1000C00003C1000001C10000FFC00000FDC000002E
:1000D000FBC00000F9C00000F7C00000F5C0000040
:1000E000F3C00000B105030603060306030603067A
:1000F00003060306B105030603060306030603060B
:1001000003060306B30503060306030603060306F8
:100110000306030603060306030603060306030697
:1001200003060306B30503060306030603060306D8
:100130000306030603060306030603060306030677
:1001400003060306FF05030603060306030603066C
:1001500003060306DC05030603060306030603067F
:100160000306030603060306030603060306030647
:1001700003060306D005030603060306030603066B
:1001800003060306EE056E616E00696E66000040B0
:100190007A10F35A00A0724E18090010A5D4E80096
:1001A00000E87648170000E40B54020000CA9A3BAE
:1001B000000000E1F5050000809698000000404234
:1001C0000F000000A08601000000102700000000C2
:1001D000E803000000006400000000000A000000C6
:1001E00000000100000000002C76D888DC674F0872
:1001F00023DFC1DFAE59E1B1B796E5E3E453C63A78
:10020000E651997696E8E6C28426EB898C9B62EDEE
:10021000407C6FFCEFBC9C9F40F2BAA56FA5F490A8
:10022000055A2AF75C936B6CF9676DC11BFCE0E41F
:100230000D47FEF520E6B500D0ED902E0300943575
:1002400077050080841E080000204E0A000000C8C8
:100250000C333333330F986E12831141EF8D211419
:10026000893BE65516CFFEE6DB18D1844B381BF7E9
:100270007C1D901DA4BBE424203284725E22810088
:10028000C9F124ECA1E53D2711241FBECFEFD1E237
:10029000DEBFCDBF00E00CBF12E0A0E0B2E0E4E7BB
:1002A000FEE100E00BBF02C007900D92AE39B1072E
:1002B000D9F722E0AEE9B2E001C01D92A83CB20736
:1002C000E1F750D20C94380F9BCEEAE7F0E0808142
:1002D00087688083ECE7F0E08081806480838081A0
:1002E0008F7780830895D6D14FEF60E680E6BED148
:1002F0004FEF60E680E7BAD143E063E08EE2B6D12B
:1003000040E060EE8FE0B2C1089580B18CE29DD1F3
:1003100080FF06C04FEF61E08CE2A8D190E609C0F3
:10032000982F927081FF05C04FEF62E08CE29ED162
:1003300090E7892F08958F929F92AF92BF92CF92AC
:10034000DF92EF92FF920F931F93CF93DF93CDB77E
:10035000DEB72B970FB6F894DEBF0FBECDBF6C0192
:10036000D4DF182F81E0810F70D1A82E82E0810F99
:100370006CD1829586958770B12CAA0CBB1CAA0CF7
:10038000BB1CAA0CBB1CA82A85E0810F5ED18F7014
:10039000882EA1F00F2EF6E09F2EF02D910E8E01EB
:1003A0000C5F1F4F7801E80EF11C892D4ED1F8012A
:1003B00081938F019394EE15FF05B9F740E061E05A
:1003C0008CE254D1BA82A9828B828BE0FE013196F5
:1003D000D60101900D928A95E1F7C6012B960FB6D2
:1003E000F894DEBF0FBECDBFDF91CF911F910F916B
:1003F000FF90EF90DF90CF90BF90AF909F908F9045
:100400000895EF92FF920F931F93CF93DF93CDB791
:10041000DEB72B970FB6F894DEBF0FBECDBFE982D3
:10042000FA820B831C832D833E834F835887698711
:100430007A878B87112311F0129A01C012982B969C
:100440000FB6F894DEBF0FBECDBFDF91CF911F91E5
:100450000F91FF90EF9008954F925F926F927F926D
:10046000AF92BF92CF92DF92EF92FF920F931F93C2
:10047000CF93DF93CDB7DEB72B970FB6F894DEBFDF
:100480000FBECDBFAA24AA94B12CB501611B71097E
:10049000882777FD8095982FEBD42B013C01B6017E
:1004A000882777FD8095982FE3D420E030E04FE750
:1004B00053E443D49B01AC01C301B20165D52B01C8
:1004C0003C0130D1BC01882777FD8095982FD0D48E
:1004D0009B01AC011AE0E12E17EDF12E03E21CE3C3
:1004E000C301B201EBD12B013C01C6010196B5015C
:1004F0000E94AE0B882777FD8095982FB9D49B0179
:10050000AC01C301B20119D480D4CB01DBD02B964E
:100510000FB6F894DEBF0FBECDBFDF91CF911F9114
:100520000F91FF90EF90DF90CF90BF90AF907F90B2
:100530006F905F904F900895CF92DF92EF92FF926D
:100540000F931F93CF93DF93CDB7DEB72B970FB6E3
:10055000F894DEBF0FBECDBFE982FA820B831C8305
:100560002D833E834F83588769877A878B8789815C
:100570009A818737910551F088389105A1F085352A
:100580009105E9F4812F90E06ED219C0E980FA80DC
:100590000B811C812D813E814F81588569857A852B
:1005A0008B852FDF0CC0E980FA800B811C812D81A7
:1005B0003E814F81588569857A858B854DDF2B96E5
:1005C0000FB6F894DEBF0FBECDBFDF91CF911F9164
:1005D0000F91FF90EF90DF90CF900895CF93C82FA9
:1005E00079D27894C0939E02CF910895CF93DF93F0
:1005F00000D0CDB7DEB790919E029770990F9065AD
:10060000998387708A836B8363E0CE0101966CD2F5
:100610000F900F900F90DF91CF910895CF93DF93BC
:1006200000D01F921F92CDB7DEB7362F542F622F06
:10063000472F282F70E080E090E00F900F900F90F0
:100640000F900F90DF91CF910895CF93C82F2898E6
:1006500083E03AD28C2F38D280E036D2289ACF91DC
:100660000895289880EC30D2289A08951F93CF934C
:10067000DF93182FD62FC42F289885E025D2812FFD
:1006800023D28D2F21D28C2F1FD2289ADF91CF9188
:100690001F91089513D2E5CF08958E988AE68A9522
:1006A000F1F700C08E9A089580B3886F80BB1092D6
:1006B00007018C9AF2CF0895892B11F08B98089539
:1006C0008B9A0895CF93DF93EC011816190624F442
:1006D00080E090E0F1DF08C081E090E0EDDFDD2315
:1006E0001CF4D195C195D109BE01CF3FD10519F0B8
:1006F00014F06FEF70E080E079DFDF91CF91089523
:10070000282F2575220F982F9A7A9695922B292FAC
:100710002373220F220F892F8C7C86958695822B3E
:1007200082950895CF93DF9381B38F7581BB2AE6BD
:100730002A95F1F700C080910601E2DFC82FD0E0D2
:10074000DC2FCC278D9A3AE63A95F1F700C08091DC
:100750000601D6DF8F9A9E01280F311DC901DF9156
:10076000CF910895CF93DF93CDB7DEB760970FB6E3
:10077000F894DEBF0FBECDBF789487E690E059D2E3
:1007800060E376E088E296E00E94D80C87E092E091
:100790000E94650DA8DD87E192E00E94650D4BD1B6
:1007A00086E292E00E94650D90DD85E392E00E9472
:1007B000650D7ADF84E492E00E94650D87E00EDF2C
:1007C00085E592E00E94650DE12CF12C00E010E837
:1007D00020E030E040E05FEBCA01B90136D084E6AA
:1007E00092E00E94650D0A9AFE0131968BE0DF01CE
:1007F0001D928A95E9F720E040E060E070E080E03B
:100800000DDF2C873D874E875F87688BD6D05C01D4
:1008100084E690E057DF79DD882319F0CE01019658
:100820008ADD6501E980FA800B811C812D813E8182
:100830004F81588569857A858B857EDE8FE39CE9BB
:100840000197F1F700C00000E6CFEF92FF920F93FF
:100850001F936093BA027093BB028093BC02909383
:10086000BD022093AE023093AF024093B00250938A
:10087000B102E092A602F092A7020093A8021093A0
:10088000A9021092AA021092AB021092AC0210922E
:10089000AD021092B6021092B7021092B8021092F6
:1008A000B9021092B2021092B3021092B4021092E6
:1008B000B5021F910F91FF90EF9008954F925F92B4
:1008C0006F927F928F929F92AF92BF92CF92DF9260
:1008D000EF92FF920F931F9327013801C9D16B014B
:1008E0007C01A301920150D32091B6023091B7024E
:1008F0004091B8025091B902BCD14B015C016093A8
:10090000B6027093B7028093B8029093B902209117
:10091000B2023091B3024091B4025091B502C701C6
:10092000B601A6D1A301920108D22B013C01C092CD
:10093000B202D092B302E092B402F092B5022091DA
:10094000BA023091BB024091BC025091BD02C70176
:10095000B6011AD36B017C012091AE023091AF0237
:100960004091B0025091B102C501B4010DD39B0179
:10097000AC01C701B6017DD16B017C012091A602BB
:100980003091A7024091A8025091A902C301B2017F
:10099000FBD29B01AC01C701B6016BD11F910F9136
:1009A000FF90EF90DF90CF90BF90AF909F908F908F
:1009B0007F906F905F904F900895CF93DF938BE47B
:1009C00090E080DE8FEF8F938F931F921F9288E7C6
:1009D00092E09F938F930E94540D0F900F900F9071
:1009E0000F900F900F9087E892E00E94650D9ADEBD
:1009F000EC0198DEC817D907B1F780E992E00E94B0
:100A0000650D80E090E05EDE48DE85EB9FEF5ADE0C
:100A100089DEEC0187EA91E60197F1F700C000005A
:100A200081DEC817D907A1F780E090E04BDECE0148
:100A3000DF91CF9108956B9AE0E9F0E080818E7BA1
:100A40008083808182688083E1E9F0E080818D612C
:100A5000808380818D7F808388E391E090939700ED
:100A600080939600089543E1489F9001499F300D7F
:100A70001124A1E8B0E88BD6880F892F881F990B25
:100A800091959C012B5031092330310538F489E1CF
:100A900090E0909399008093980008958931910592
:100AA00030F40D969093990080939800089589E111
:100AB00090E09093990080939800089587E084B91E
:100AC000239881E58CBD08958EBD0DB407FEFDCF42
:100AD0008EB508958CE08093B8008FEF8093BB00B3
:100AE00084E08093BC000895ECEBF0E0208120FDD1
:100AF000FDCF6093A102FC0120812093A20220FD82
:100B00000CC0623050F0DC011196E3EAF2E081E0C3
:100B10009D9191938F5F8613FBCF1092A00288EF77
:100B20008093060285EA8093BC0008951F920F927D
:100B30000FB60F9211240BB60F922F933F938F9302
:100B40009F93AF93BF93EF93FF938091B90090E091
:100B5000FC013897E135F10508F055C0EE58FF4F1C
:100B600010C610929F02E0919F028091A102E817A7
:100B700070F481E08E0F80939F02F0E0EE55FD4F00
:100B800080818093BB0085E88093BC0043C0809146
:100B9000A00281608093A00284E98093BC003AC0E7
:100BA000E0919F0281E08E0F80939F028091BB00B5
:100BB000F0E0EE55FD4F808320919F0230E0809160
:100BC000A10290E001972817390724F485EC80935F
:100BD000BC0020C085E88093BC001CC08091BB0095
:100BE000E0919F02F0E0EE55FD4F80838091A002DE
:100BF00081608093A00284E98093BC000BC085EAE9
:100C00008093BC0007C08091B9008093060284E005
:100C10008093BC00FF91EF91BF91AF919F918F9115
:100C20003F912F910F900BBE0F900FBE0F901F9012
:100C300018959093C5008093C400E1ECF0E08081AA
:100C400088618083E2ECF0E0808186608083089593
:100C5000E0ECF0E0908195FFFDCF8093C600089511
:100C6000E0ECF0E080818823ECF78091C6000895E5
:100C70005058BB27AA270ED04DC13ED130F043D1EA
:100C800020F031F49F3F11F41EF433C10EF4E095CF
:100C9000E7FB29C1E92F4FD180F3BA176207730729
:100CA0008407950718F071F49EF567C10EF4E0957E
:100CB0000B2EBA2FA02D0B01B90190010C01CA0116
:100CC000A0011124FF27591B99F0593F50F4503EC1
:100CD00068F11A16F040A22F232F342F4427585FB3
:100CE000F3CF469537952795A795F0405395C9F7CB
:100CF0007EF41F16BA0B620B730B840BBAF0915083
:100D0000A1F0FF0FBB1F661F771F881FC2F70EC021
:100D1000BA0F621F731F841F48F4879577956795F4
:100D2000B795F7959E3F08F0B3CF9395880F08F0DD
:100D30009927EE0F9795879508950CD0EBC0E3D0D7
:100D400040F0DAD030F021F45F3F19F0CCC05111FF
:100D500015C1CFC0F0D098F39923C9F35523B1F34F
:100D6000951B550BBB27AA2762177307840738F01A
:100D70009F5F5F4F220F331F441FAA1FA9F333D079
:100D80000E2E3AF0E0E830D091505040E695001C2D
:100D9000CAF729D0FE2F27D0660F771F881FBB1FE9
:100DA000261737074807AB07B0E809F0BB0B802DC3
:100DB000BF01FF2793585F4F2AF09E3F510568F00F
:100DC00092C0DCC05F3FECF3983EDCF386957795EC
:100DD0006795B795F7959F5FC9F7880F911D969511
:100DE000879597F90895E1E0660F771F881FBB1F6D
:100DF000621773078407BA0720F0621B730B840B1A
:100E0000BA0BEE1F88F7E095089504D06894B111ED
:100E1000B5C0089598D088F09F5790F0B92F9927C2
:100E2000B751A0F0D1F0660F771F881F991F1AF0F5
:100E3000BA95C9F712C0B13081F09FD0B1E00895E2
:100E40009CC0672F782F8827B85F39F0B93FCCF363
:100E5000869577956795B395D9F73EF490958095EB
:100E6000709561957F4F8F4F9F4F0895E89409C00B
:100E700097FB3EF490958095709561957F4F8F4FCD
:100E80009F4F9923A9F0F92F96E9BB279395F695E3
:100E9000879577956795B795F111F8CFFAF4BB0F61
:100EA00011F460FF1BC06F5F7F4F8F4F9F4F16C0C5
:100EB000882311F096E911C0772321F09EE8872F4F
:100EC000762F05C0662371F096E8862F70E060E00B
:100ED0002AF09A95660F771F881FDAF7880F969584
:100EE000879597F9089597F99F6780E870E060E02B
:100EF00008959FEF80EC089500240A9416161706B3
:100F000018060906089500240A94121613061406FA
:100F100005060895092E0394000C11F4882352F05D
:100F2000BB0F40F4BF2B11F460FF04C06F5F7F4F15
:100F30008F4F9F4F089557FD9058440F551F59F0FC
:100F40005F3F71F04795880F97FB991F61F09F3FB6
:100F500079F087950895121613061406551FF2CFDF
:100F60004695F1DF08C0161617061806991FF1CF2F
:100F700086957105610508940895E894BB27662756
:100F80007727CB0197F908950BD0C4CFB5DF28F0B0
:100F9000BADF18F0952309F0A6CFABCF1124EECF1E
:100FA000CADFA0F3959FD1F3950F50E0551F629FC4
:100FB000F001729FBB27F00DB11D639FAA27F00DB2
:100FC000B11DAA1F649F6627B00DA11D661F829FD9
:100FD0002227B00DA11D621F739FB00DA11D621FBE
:100FE000839FA00D611D221F749F3327A00D611DDB
:100FF000231F849F600D211D822F762F6A2F1124BD
:101000009F5750408AF0E1F088234AF0EE0FFF1F0F
:10101000BB1F661F771F881F91505040A9F79E3F46
:10102000510570F060CFAACF5F3FECF3983EDCF340
:10103000869577956795B795F795E7959F5FC1F783
:10104000FE2B880F911D9695879597F908952F92FD
:101050003F924F925F926F927F928F929F92AF9248
:10106000BF92CF92DF92EF92FF920F931F93CF9395
:10107000DF93CDB7DEB763970FB6F894DEBF0FBE30
:10108000CDBF7C011B016A01FC011782168283819E
:1010900081FF49C3BE016F5F7F4F4B01F701938111
:1010A000F10193FD859193FF81911F01882309F43C
:1010B00036C3853239F493FD859193FF81911F01E9
:1010C000853231F4B70190E0BDD456016501E6CF19
:1010D00010E0512C20E02032A0F48B3269F030F483
:1010E000803259F0833269F420612CC08D3239F09E
:1010F000803339F4216026C02260246023C0286038
:1011000021C027FD27C030ED380F3A3078F426FF94
:1011100006C0FAE01F9F300D1124132F13C06AE0A0
:10112000569E300D1124532E20620CC08E3221F4B5
:1011300026FDF5C2206406C08C3611F4206802C07A
:10114000883641F4F10193FD859193FF81911F0150
:101150008111C1CF9BEB980F933018F42061805E12
:1011600006C09BE9980F933008F09AC12F7E26FFA6
:1011700016E02F73722E853621F4F22FF0647F2E45
:1011800008C0863621F4622F6068762E02C01111E5
:10119000115077FE07C01C3348F444244394410E99
:1011A00027E00BC0183030F4212F06C027E04CE3B5
:1011B000442E03C027E017E0412C560174E0A70E2F
:1011C000B11CF6016081718182819381042DA4019B
:1011D00001D36C01098100FF02C003FF06C071FC4E
:1011E00007C072FC08C0612C08C03DE2632E05C038
:1011F0002BE2622E02C090E2692E802F8C7081F16A
:10120000662011F084E001C083E0851510F0512CB8
:101210000AC0581A73FC07C0B70180E290E012D4EC
:101220005A94D1F7F4CF662021F0B701862D90E0D3
:1012300009D403FD03C00AE811E002C006E811E08A
:10124000F72DF0717F2EF8018491882309F45EC296
:1012500071108052B70190E0F5D30F5F1F4FF3CFAD
:1012600077FE0FC04C0C04FF04C08A81813309F45F
:101270004A94141474F5F8E0F41578F588E0482ED3
:101280002CC076FC2AC0812F90E08C159D059CF027
:101290006CEFC6166FEFD60674F0772D7068772E58
:1012A0000AC0E2E0F0E0EC0FFD1FE10FF11D8081CC
:1012B000803319F411501111F4CF77FE0EC044247D
:1012C0004394410E812F90E0C816D9062CF41C19C6
:1012D00004C04424439401C010E077FE07C01C14EE
:1012E0001D043CF496012F5F3F4F05C025E030E020
:1012F00002C021E030E0662011F02F5F3F4F112344
:1013000031F0412F50E04F5F5F4F240F351F452DC7
:1013100050E02417350714F4521A01C0512C872DC0
:10132000897041F4552031F0B70180E290E08AD312
:101330005A94F8CF662021F0B701862D90E082D331
:1013400073FC08C0552031F0B70180E390E07AD3F8
:101350005A94F8CF77FE5DC09C2D8D2DD7FE02C02C
:1013600090E080E0692E782E40E050E0C6018419BC
:1013700091099D878C87960126193709280D391DFB
:10138000812F90E0EE27FF27E81BF90BFF87EE8700
:10139000FFEF6F167F0661F4B7018EE290E02B8BB2
:1013A0003A8B488B598B4ED3598948893A892B8976
:1013B000C614D70454F06C857D85661577052CF42A
:1013C000F901E40FF51F818101C080E371E0671A24
:1013D00071084F5F5F4FEE85FF856E167F0664F0E4
:1013E000B70190E02B8B3A8B488B598B2BD32B89F1
:1013F0003A8948895989CCCF6C147D0439F49A8193
:10140000963318F4953311F404FF81E3B70190E0AB
:1014100045C08A81813309F00F7EB70190E012D375
:10142000111105C074FE16C085E490E015C0B70127
:101430008EE290E007D382E066246394680EF401A4
:10144000E80FF11D8081B70190E0FCD2115051F3FB
:10145000862DF2CF85E690E0B701F4D2D7FC05C027
:10146000C114D10439F404FF05C0D194C194D1084A
:101470008DE201C08BE2B70190E0E4D280E36AE044
:10148000C616D1042CF08F5FFAE0CF1AD108F7CF3F
:10149000B70190E0D7D2B701C601C096D3D236C10A
:1014A000833631F0833779F0833509F054C020C09A
:1014B000560172E0A70EB11CF6018081898301E01C
:1014C00010E0640113C05601F2E0AF0EB11CF6014A
:1014D000C080D18026FF03C0612F70E002C06FEF93
:1014E0007FEFC6012B8B59D28C012B892F7714C02B
:1014F0005601F2E0AF0EB11CF601C080D18026FF8C
:1015000003C0612F70E002C06FEF7FEFC6012B8B2D
:1015100039D28C012B892068722E23FD18C0852DAD
:1015200090E00817190798F4B70180E290E08AD29A
:101530005A94F5CFF60177FC859177FE81916F0182
:10154000B70190E07FD251105A9401501109011552
:10155000110581F7DBC0843611F0893649F5560153
:1015600027FF09C0F4E0AF0EB11CF6016081718164
:10157000828193810AC0F2E0AF0EB11CF601608156
:101580007181882777FD8095982F022F0F7697FF1E
:1015900008C090958095709561957F4F8F4F9F4FB4
:1015A00000682AE030E0A401BDD2C82EC8183DC0B2
:1015B000022F853721F40F7E2AE030E01DC0097F1D
:1015C0008F3691F018F4883559F0A9C0803719F09A
:1015D000883711F0A4C0006104FF09C0046007C08F
:1015E00024FF08C0066006C028E030E005C020E106
:1015F00030E002C020E132E0560107FF09C0F4E00C
:10160000AF0EB11CF601608171818281938108C0A7
:10161000F2E0AF0EB11CF6016081718180E090E0D4
:10162000A40180D2C82EC8180F7706FF0BC0202F48
:101630002E7FC11650F404FF0AC002FD08C0202FFF
:101640002E7E05C0DC2C202F03C0DC2C01C0D12E47
:1016500024FF0DC0FE01EC0DF11D8081803311F4DB
:10166000297E09C022FF06C0D394D39404C0822FE0
:10167000867809F0D39423FD12C020FF06C01C2DEC
:10168000D51418F4150D1D19D52CD51460F4B70117
:1016900080E290E02B8BD6D1D3942B89F6CFD51452
:1016A00010F45D1801C0512C24FF11C0B70180E374
:1016B00090E02B8BC7D12B8922FF16C021FF03C0DE
:1016C00088E590E002C088E790E0B7010CC0822F67
:1016D000867851F021FD02C080E201C08BE227FD37
:1016E0008DE2B70190E0AED1C11630F4B70180E3CE
:1016F00090E0A8D11150F8CFCA94F401EC0DF11D7F
:101700008081B70190E09ED1C110F6CF552009F439
:10171000DDCCB70180E290E095D15A94F7CFF70184
:101720008681978102C08FEF9FEF63960FB6F89482
:10173000DEBF0FBECDBFDF91CF911F910F91FF9004
:10174000EF90DF90CF90BF90AF909F908F907F9061
:101750006F905F904F903F902F90089597FB072ECA
:1017600016F4009406D077FD08D020D007FC05D0F1
:101770003EF4909581959F4F0895709561957F4FA8
:101780000895EE0FFF1F0590F491E02D1994A29F8C
:10179000B001B39FC001A39F700D811D1124911D45
:1017A000B29F700D811D1124911D0895AA1BBB1BB2
:1017B00051E107C0AA1FBB1FA617B70710F0A61B51
:1017C000B70B881F991F5A95A9F780959095BC0172
:1017D000CD010895283008F027E03327DA01990F6A
:1017E000311D87FD916000966105710539F4326005
:1017F0002E5F3D9330E32A95E1F708959F3F30F047
:1018000080387105610509F03C5F3C5F3D93913084
:1018100008F08068911DDF93CF931F930F93FF9281
:10182000EF92192F987F9695E92F96959695E90F47
:10183000FF27E851FE4F99273327EE24FF24A70105
:10184000E70105900894079428F4360FE71EF81E68
:10185000491F511D660F771F881F991F0694A1F716
:101860000590079428F4E70EF81E491F561FC11D66
:10187000770F881F991F661F0694A1F7059007949C
:1018800028F4F80E491F561FC71FD11D880F991F36
:10189000661F771F0694A1F70590079420F4490F5F
:1018A000561FC71FD81F990F661F771F881F0694E2
:1018B000A9F784911095177041F0D695C795579563
:1018C0004795F794E7941A95C1F7EEE8F1E068942C
:1018D0001590159135916591959105907FE27395DD
:1018E000E118F10A430B560BC90BD009C0F7E10C04
:1018F000F11E431F561FC91FD01D7EF4703311F413
:101900008A95E6CFE894015030F0080F0AF40027DA
:10191000021708F4202F2395022F7A3328F079E359
:101920007D932A95E9F710C07D932A9589F6069450
:1019300097956795379517951794E118F10A430B1A
:10194000560BC90BD00998F023957E9173957A3385
:1019500008F070E37C932013B8F77E9170617D935B
:1019600030F0839571E37D9370E32A95E1F71124BC
:10197000EF90FF900F911F91CF91DF91992787FDF5
:1019800090950895FC010590615070400110D8F7C2
:10199000809590958E0F9F1F0895FC0161507040B7
:1019A00001900110D8F7809590958E0F9F1F089594
:1019B0000F931F93CF93DF93EC018B01009731F4CA
:1019C0006115710519F480E090E037C06EE070E0B9
:1019D00081E090E005D1FC010097A9F380E88383C2
:1019E0000115110571F01387028781E883838091C7
:1019F000BE029091BF02892B21F4F093BF02E093C5
:101A0000BE022097C9F0D187C0878381826083831B
:101A10008091C0029091C102892B71F4F093C102B0
:101A2000E093C0028091C2029091C302892B21F4FD
:101A3000F093C302E093C202CF01DF91CF911F91D7
:101A40000F9108950F931F93CF93DF93182F092FB2
:101A5000EB018B8181FD03C08FEF9FEF20C082FFE0
:101A600010C04E815F812C813D81421753077CF469
:101A7000E881F9819F012F5F3F4F398328831083CD
:101A800006C0E885F985812F1995892B29F72E81C4
:101A90003F812F5F3F4F3F832E83812F902FDF9118
:101AA000CF911F910F910895CF93DF93CDB7DEB7FC
:101AB000FE01369661917191AF018091C0029091C3
:101AC000C102C5DADF91CF9108950F931F93CF9391
:101AD000DF93E091C002F091C102238121FF1BC07E
:101AE000EC0100E010E089916091C0027091C102A8
:101AF000DB011896ED91FC911997882331F0199527
:101B0000892B89F30FEF1FEFEECF8AE01995892B10
:101B100011F4C80102C08FEF9FEFDF91CF911F91A9
:101B20000F910895FA01AA27283051F1203181F14F
:101B3000E8946F936E7F6E5F7F4F8F4F9F4FAF4FD5
:101B4000B1E03ED0B4E03CD0670F781F891F9A1FE8
:101B5000A11D680F791F8A1F911DA11D6A0F711D9C
:101B6000811D911DA11D20D009F468943F912AE0A8
:101B7000269F11243019305D3193DEF6CF01089590
:101B8000462F4770405D4193B3E00FD0C9F7F6CFC1
:101B9000462F4F70405D4A3318F0495D31FD405289
:101BA000419302D0A9F7EACFB4E0A695979587951F
:101BB00077956795BA95C9F70097610571050895FE
:101BC0009B01AC010A2E06945795479537952795AA
:101BD000BA95C9F7620F731F841F951FA01D089542
:101BE0000F931F93CF93DF93869F8001879F100DE4
:101BF000969F100D1124C8010DD0EC01009721F023
:101C0000A80160E070E02DD1CE01DF91CF911F914E
:101C10000F910895CF93DF938230910510F482E005
:101C200090E0E091C602F091C70220E030E0A0E031
:101C3000B0E0309739F14081518148175907B8F029
:101C40004817590771F482819381109729F01396F0
:101C50009C938E9312972CC09093C7028093C602D8
:101C600027C02115310531F04217530718F0A9019B
:101C7000DB0101C0EF019A01BD01DF010280F381A8
:101C8000E02DD7CF21153105F9F0281B390B243071
:101C9000310580F48A819B816115710521F0FB017A
:101CA0009383828304C09093C7028093C602FE018F
:101CB000329644C0FE01E20FF31F819391932250AC
:101CC0003109398328833AC02091C4023091C5027A
:101CD000232B41F420910202309103023093C5027C
:101CE0002093C40220910002309101022115310598
:101CF00041F42DB73EB74091040250910502241BD8
:101D0000350BE091C402F091C502E217F307A0F48D
:101D10002E1B3F0B2817390778F0AC014E5F5F4F41
:101D20002417350748F04E0F5F1F5093C5024093AC
:101D3000C4028193919302C0E0E0F0E0CF01DF9113
:101D4000CF910895CF93DF93009709F487C0FC01EA
:101D5000329713821282C091C602D091C702209797
:101D600081F420813181280F391F8091C402909124
:101D7000C5028217930779F5F093C502E093C40278
:101D80006DC0DE0120E030E0AE17BF0750F41296C0
:101D90004D915C9113979D014115510509F1DA01AF
:101DA000F3CFB383A28340815181840F951F8A179B
:101DB0009B0771F48D919C911197840F951F02964A
:101DC0009183808312968D919C9113979383828344
:101DD0002115310529F4F093C702E093C6023EC0F5
:101DE000D9011396FC93EE9312974D915D91A40F38
:101DF000B51FEA17FB0779F480819181840F951F45
:101E00000296D90111969C938E93828193811396A9
:101E10009C938E931297E0E0F0E08A819B8100977B
:101E200019F0FE01EC01F9CFCE010296288139812B
:101E3000820F931F2091C4023091C50228173907E1
:101E400069F4309729F41092C7021092C60202C0BA
:101E500013821282D093C502C093C402DF91CF9146
:101E60000895DC0101C06D9341505040E0F70895A2
:041E7000F894FFCF14
:101E74000000C8022000F85541525420736574755F
:101E84007020646F6E650043414E207365747570F5
:101E940020646F6E650050574D2073657475702013
:101EA400646F6E65004144432073657475702064EB
:101EB4006F6E65004D6F746F72207365747570205A
:101EC400646F6E65004441432073657475702064CB
:101ED4006F6E6500496E697469616C697A617469D1
:101EE4006F6E20646F6E650056616C7565733A2081
:101EF40025642025640A00496E207768696C6500B2
:0E1F04004F7574206F66207768696C65000069
:00000001FF
